:020000040800F2
:1000000068610324D90300084D680008E75600081A
:1000100025670008D52D0008D5A3000800000000C2
:100020000000000000000000000000009D99000892
:10003000F531000800000000792D0008499A0008F9
:100040001304000813040008130400081304000834
:100050001304000813040008130400081304000824
:100060001304000813040008130400081304000814
:100070001304000813040008130400081304000804
:1000800013040008130400081304000813040008F4
:1000900013040008130400081304000813040008E4
:1000A00013040008130400081304000813040008D4
:1000B0001304000813040008F19A00081304000850
:1000C00013040008130400081304000813040008B4
:1000D000130400081304000885A300081304000893
:1000E00013040008130400080000000013040008B3
:1000F0001304000813040008130400081304000884
:100100001304000813040008130400081304000873
:100110001304000813040008130400081304000863
:100120001304000813040008130400081304000853
:1001300013040008F9310008130400081304000830
:1001400000000000000000000000000000000000AF
:100150001304000813040008130400081304000823
:100160001304000813040008130400081304000813
:100170001304000813040008130400080000000022
:1001800013040008130400081304000813040008F3
:1001900013040008130400081304000813040008E3
:1001A00013040008130400081304000813040008D3
:1001B00013040008130400081304000813040008C3
:1001C00013040008130400081304000813040008B3
:1001D00013040008130400081304000813040008A3
:1001E0001304000813040008130400081304000893
:1001F0001304000813040008130400081304000883
:100200001304000813040008130400081304000872
:100210001304000813040008130400081304000862
:100220001304000813040008130400080000000071
:100230001304000813040008000000001304000861
:100240001304000813040008130400081304000832
:100250001304000813040008130400081304000822
:100260001304000813040008130400081304000812
:100270001304000813040008130400080000000021
:100280001304000800000000130400080000000030
:10029000000000001304000800F002F800F085F8E8
:1002A0000AA090E8000C82448344AAF10107DA45D1
:1002B00001D100F07AF8AFF2090EBAE80F0013F09E
:1002C000010F18BFFB1A43F001031847904E0100BD
:1002D000B04E01000A444FF0000C10F8013B13F03F
:1002E000070408BF10F8014B1D1108BF10F8015B8F
:1002F000641E05D010F8016B641E01F8016BF9D182
:1003000013F0080F1EBF10F8014BAD1C0C1B09D1D8
:100310006D1E58BF01F801CBFAD505E014F8016B4A
:1003200001F8016B6D1EF9D59142D6D370470000DC
:100330000023002400250026103A28BF78C1FBD8EE
:10034000520728BF30C148BF0B607047662914F0C0
:10035000A284672914F09F84642900F03B827529E8
:1003600000F03882782900F07182632900F0F38769
:10037000732900F0F887002070471FB514F086FC41
:100380009DE8030000F024FD00F002FD04000020C1
:10039000002114F047FC401C60600020002114F094
:1003A00057FCE0601FBD10B510BD01F0ABFD11465C
:1003B000FFF7E3FF0EF0F8FB02F008F803B4FFF7D5
:1003C000F2FF03BC0AF0C3F930BF72B6704762B6E1
:1003D000704780F30888704711488047DFF8440071
:1003E000016841F470010160BFF34F8FDFF83800FE
:1003F000016821F040410160BFF36F8F0B48004757
:10040000FEE7FEE7FEE7FEE7FEE7FEE7FEE7FEE7C4
:10041000FEE7FEE706480749074A084B7047000019
:100420006D9A000888ED00E034EF00E099020008C2
:10043000685B032468610324685D0324685D03240A
:1004400072B6704762B67047EFF3108072B67047AD
:1004500080F31088704730BF704720BF7047B0FAF4
:1004600080F0704790FAA0F0B0FA80F0704790FAF0
:10047000A0F0704710B500F08BFC001D10BD00BF50
:10048000A547010070B5064600F07EFC056806F140
:100490000B0020F00704B4429CBF002070BD2B4627
:1004A0006A68BAB11068A04210D304F1080188420A
:1004B0003CBF5068586007D35168101941601168FB
:1004C000091B016058601460101D70BD134652680E
:1004D000002AE7D12146284600F066FC0028DED13C
:1004E00070BD70B50446051F00F04EFC0068002C7E
:1004F00014BF446870BD002C18BFAC423CBF2046FE
:100500006468F8D301680A18AA4218BF456003D18D
:100510002A6805461144016028684119A1421CBFA0
:100520006C6070BD6168696021680844286070BDB6
:1005300070B50D460646041F00F026FCD0F800C03A
:10054000C5B1E6B105F10B0020F00703AB423CBF9B
:10055000002070BD2068984238BFDCF8042013D317
:10056000C11A08292FD3E01840F8041B2360FFF7B5
:10057000B8FF28E03046FFF7B4FF002070BD2846E2
:10058000BDE87040FFF77EBF002A18BFA2423CBF03
:1005900094465268F8D30119914216D11168084463
:1005A000984212D3C11A08293CBF2060506808D372
:1005B0005168E0184160216812681144C91A01604D
:1005C0002360CCF80400201D70BD181FFFF75AFFF0
:1005D000050007D021680A1F211D00F044FB201DE3
:1005E000FFF77FFF284670BD53EA020C00F06980D8
:1005F0002DE9F04B4FF00006002B1FBFB3FA83F537
:1006000003FA05F424FA05F65E4012BF1643B2FA67
:1006100082F502FA05F4C5F120051EBF22FA05FC99
:1006200044EA0C04203556EA044C4FEA144418BF3F
:10063000641C4FF000084FF00009904271EB030C6E
:1006400039D3002919BFB1FA81F701FA07F6B0FAD8
:1006500080F700FA07F6C7F120071EBF20FA07FC53
:1006600046EA0C062037B6FBF4FCA7EB0507103F63
:1006700007F01F0BCBF120060CFA0BFB2CFA06F649
:1006800044BFB3460026202FA4BF5E464FF0000BA8
:100690005BEA060C08BF4FF0010B19EB0B09ABFB33
:1006A000027C48EB0608C01B06FB02CC0BFB03CC0C
:1006B00071EB0C01C1E70B46024641464846BDE8D6
:1006C000F08B13B54FF000004FF00001AFF3008046
:1006D000BDE81C40704710B50446FFF7CBFE00682C
:1006E000005DC00602D504F1200010BD204610BDFB
:1006F0000FB4044910B503AA029800F039FE10BCEB
:100700005DF814FB140000240FB41CB5084B06AAB6
:100710007B4469460090059800F0FBFD04460020EC
:10072000694600F009FE20461CBC5DF814FB000081
:10073000250C000070B5044685690068C10601D526
:10074000302600E02026C00707D070BDD4E9012183
:1007500030469047206A401C20626D1EF6D570BD61
:1007600070B5044685690078C00707D170BDD4E92B
:10077000012120209047206A401C20626D1EF6D582
:1007800070BD70B50C460546012A05D02878800654
:1007900000D5EA69002302E0012305E05B1C9342D7
:1007A00002D2E05C0028F9D1A869E618C01AA86155
:1007B000286A184428622846FFF7BCFF04E0D5E900
:1007C000012114F8010B9047B442F8D32846FFF7F3
:1007D000C7FF70BD2DE9F041064600241068752959
:1007E000314616A510D0AFF30080002802DA40424F
:1007F00013A507E031688A0701D512A502E0490771
:1008000004D511A5012401E0AFF3008000210A22E4
:1008100006F1240709E0B0FBF2FCB0FBF2F302FBA7
:100820001C00303078541846491C0028F3D1234668
:100830002A463046BDE8F04100F000BB0000000051
:100840002D0000002B0000002000000070B50446C1
:100850000D4621461068AFF300802188090502D5B6
:100860000F4A7A4402E00E4A7A440E32002104F123
:10087000240305E000F00F060009965D5E54491C54
:100880000028F7D120780023000704D5702D02D06E
:1008900009B1022311322046BDE8704000F0CEBA03
:1008A0001A4701002DE9F05F894604464FF0000A1F
:1008B000DFF874B1FB44C0F820A02046E168884707
:1008C000002874D0252806D0D4E901219047206A59
:1008D000401C2062F1E700265F462046E168884719
:1008E0002028054607DB312D05D2781910F8200C99
:1008F00008B10643F1E7B00701D526F00406C4F8B5
:100900001CA00027C4F818A02A2D09D0284609F0F9
:1009100017FF38B304EB8708303DC8F8185019E0CA
:1009200059F8041B204604EB87029161E16888476F
:10093000012F054618D1E069002820DA26F02006AC
:100940001DE0D8F8180000EB800005EB40003038BF
:10095000C8F818002046E1688847054609F0F0FE0F
:100960000028EED1012F0AD02E2D08D12046E168B3
:1009700088477F1C0546022F46F02006C4DBA0698D
:10098000002803DA404246F00106A061F00701D0DA
:1009900026F010066C2D0BD0682D09D04C2D39D0C7
:1009A0006A2D35D0742D35D07A2D33D016E038E04D
:1009B000E1682F4620468847B842054609D16C2F8A
:1009C00026D04FF48060E1680643204688470546FC
:1009D00004E06C2F1AD04FF4807006430DB3A5F1DC
:1009E0004100192802D8203546F400664A462946B7
:1009F000204626604E46FFF7A9FC80B101280BD0A7
:100A0000F61D26F0070000F1080956E74020E4E74C
:100A10008020D8E70020D6E706F104094DE72846F4
:100A200052E7206ABDE8F09FF04601000FB400B520
:100A30008DB010A9099000910B904FF0FF300A90F3
:100A400000200C90064878440690064878446A4690
:100A500007900F9909A800F0F5FE0DB05DF814FBA2
:100A60001B0E0000330E000040EA010310B59B0787
:100A70000FD1042A0DD310C808C9121F9C42F8D008
:100A800020BA19BA884201D9012010BD4FF0FF30B9
:100A900010BD1AB1D30703D0521C07E0002010BDCF
:100AA00010F8013B11F8014B1B1B07D110F8013B5B
:100AB00011F8014B1B1B01D1921EF1D1184610BD3C
:100AC00040EA0103024630B59B0710D14FF00134D4
:100AD00000E008C208C91D1B9D4315EAC41FF8D0D9
:100AE00013F0FF0102F8011B0DD01B0AF8E711F803
:100AF000013B002B02F8013B05D011F8013B002B14
:100B000002F8013BF3D130BD10B5431C02E010F8F0
:100B1000011B71B18107FAD14FF0013202C88C1A62
:100B20008C4314EAC211F9D0C01A0A0603D0C01EC1
:100B300010BDC01A10BD0A0401D0801E10BD0902EC
:100B4000FCD0401E10BD40EA010370B59B072ED1BA
:100B50004FF00136042A2AD308C810C99D1B9D43B3
:100B6000121F15EAC61517D0D8B2E1B2401A50EAE2
:100B7000056110D198B2A1B2401A50EA05410AD1DC
:100B800023F07F4024F07F41401A50EA052102D132
:100B9000180EA0EB146070BDA342DBD018BA21BAC6
:100BA000884201D9012070BD4FF0FF3070BD0AB9F5
:100BB000002070BD10F8013B11F8014B63B1A34256
:100BC0000AD1521E08D010F8013B11F8014B1BB19D
:100BD000A34201D1521EEDD1181B70BD032A40F271
:100BE000308010F0030C00F0158011F8013BBCF1CF
:100BF000020F624498BF11F801CB00F8013B38BFE7
:100C000011F8013BA2F1040298BF00F801CB38BFF4
:100C100000F8013B11F0030300F02580083AC0F012
:100C2000088051F8043B083A51F804CBA0E80810BA
:100C3000F5E7121D5CBF51F8043B40F8043BAFF3ED
:100C40000080D20724BF11F8013B11F801CB48BF47
:100C500011F8012B24BF00F8013B00F801CB48BF7D
:100C600000F8012B704710B5203AC0F00B80B1E8B6
:100C70001850203AA0E81850B1E81850A0E81850D1
:100C8000BFF4F5AF5FEA027C24BFB1E81850A0E8DA
:100C9000185044BF18C918C0BDE810405FEA827CF4
:100CA00024BF51F8043B40F8043B08BF7047D2070B
:100CB00028BF31F8023B48BF11F8012B28BF20F8AC
:100CC000023B48BF00F8012B70474FF0000200B50F
:100CD000134694469646203922BFA0E80C50A0E85F
:100CE0000C50B1F12001BFF4F7AF090728BFA0E80D
:100CF0000C5048BF0CC05DF804EB890028BF40F8D9
:100D0000042B08BF704748BF20F8022B11F0804F1A
:100D100018BF00F8012B70474FF0013C50F8042B2E
:100D200051F8043B9A4215D1A2EB0C03934313EA0A
:100D3000CC130BD150F8042B51F8043B9A4209D143
:100D4000A2EB0C03934313EACC13E7D04FF000005F
:100D5000704700BFD01A01BAB1FA81F101F0180151
:100D600022FA01F0CB40C1F12001DBB2C0B2C01ABF
:100D70002CFA01F3D11A914311EAC311E6D170475D
:100D8000704770477047000000487047105B0324AD
:100D900000487047285B032400487047085B032421
:100DA000704770477047704738B504460A460020C0
:100DB0006946AFF30080002808BF38BD024600999D
:100DC000204600F0C3FD012038BD012001F092B89B
:100DD000F8B5AFF30080054600200C46102000BF98
:100DE0000646A819A0420DD9324669460020AFF345
:100DF0000080070008BF01F07DF80098A04218BFEE
:100E00000546C419FFF7C0FF05600746F01D20F036
:100E100007004619284600F00AF8B44208BFF8BD9A
:100E2000A21B31463868BDE8F84000F08FBD0021B4
:100E30000160C0E901107047102070472DE9F047AC
:100E40000D4699469246044600F12408016888063A
:100E500004D5E06921F01001216000E00120A842E2
:100E600001DD471B00E00027A1697A1902EB0900A8
:100E7000081AA0612078C00602D42046FFF75AFC69
:100E8000002608E0D4E901211AF806009047206AFC
:100E9000401C761C20624E45F4DB2078C0060AD543
:100EA0002046FFF747FC06E0D4E9012130209047B7
:100EB000206A401C2062381EA7F10107F4DC07E01D
:100EC000D4E9012118F805009047206A401C2062EF
:100ED000281EA5F10105F3DC2046FFF741FC207830
:100EE000000602D50220BDE8F0870120FBE770472D
:100EF0002DE9FF4F0C461E464FF0FF378BB0D2E96D
:100F00000001DDF860800A908A46C1F30A5505B9F0
:100F10003D46002108464FF00000BAF1000F00F4F2
:100F2000400005DA00EB80004FF4400101EA500078
:100F30004FEA9059B9F1010F00DDB9460A9850EA1D
:100F40004A000ED044F61050A5F2FF3545432F1449
:100F5000B8F1000F1ED07542291E1EDDC9F1000236
:100F60001CE0B8F1010F4FF0000001D0302103E088
:100F7000F24305E02154401CB042FBDB3046002226
:100F8000002121540B99C1F80880C1E900200FB05D
:100F9000BDE8F08FBD1B6D1CDEE74A4600DA6942F2
:100FA00006A800F035FF06AB93E8070003AB83E823
:100FB000070050460A9901F072FA8DE80700A0F583
:100FC00000501F3800900398002D09DD42F21F01E8
:100FD0004A46084403A90390684601F0FCFC08E077
:100FE000A0F500504A461F3803A90390684601F057
:100FF0001AFD8DE807000004000C03D04FF0FF300D
:10100000410800E01046B8F1000F03D00022009222
:1010100015461EE0751E05D400F0B2FC3032625554
:101020006D1EF9D5B3460122084302D000227F1C71
:1010300004E02078302801D100227F1E002A099781
:1010400086D01DE0112D07DA00F09AFC303262558F
:101050006D1C50EA0102F5D1084302D00098C8B1D6
:101060000EE00021681E05E0235C625C635422549C
:10107000401E491C8142F7DBAB46A81B401E09906D
:10108000002004F80B000B98099AC0F80880C0E90A
:10109000002B7CE711264FF0000859E72DE9F04FAF
:1010A00088460446D21D22F0070191B0D1E9000123
:1010B000CDE90A0109F03EFA02460B98C00F01D0B3
:1010C0002D2007E02068810701D52B2002E0202198
:1010D00001EAC000032A099001D0072A05DB034674
:1010E0004146204600F09AFC0BE12078800601D5AD
:1010F000E06900E00620B8F1650F814606D0B8F13E
:10110000660F18D0B8F1670F70D131E00020B9F147
:10111000110F009001DB112301E009F101030AAA7C
:1011200001A90CA8FFF7E4FEDDE90C70002609F127
:101130000105834647E001204B4600904FF00047F1
:101140000AAA01A90CA8FFF7D3FEDDE90DB00C999E
:101150005D46002610B909F101000D18B9EB050034
:1011600003D4C0F1FF3609F10105A5EB09002BE01E
:10117000B9F1010F01DA4FF001090020B9F1110FA7
:101180000090484601DD112300E003460AAA01A9A8
:101190000CA8FFF7ADFEDDE90C704D460026834636
:1011A000207800070AD4AB4500DA5D4601A8012D7E
:1011B00004DD411911F8011C302907D04F4502DA2E
:1011C00017F1040F04DA012082460FE06D1EEEE7EE
:1011D000002F02DCED1B3E4403E0781CA84200DD3A
:1011E0007D1CB81B00F1010A4FF000472078000772
:1011F00003D4AA4501DB4FF0FF3A0021B7F1004FBD
:101200000DF143088DF8431024D002202B23002F2A
:1012100001DA7F422D230A21021EA0F1010000DC29
:101220005FB197FBF1FC97FBF1F201FB1C7C1746C9
:101230000CF1300C08F801CDEEE7A8F101000370C5
:101240002188090501D5452100E06521A0F10108AB
:1012500000F8011C09980FA9A1EB0807FF1D00B1B8
:101260000120411901EBEA70A1693844081A401EB7
:10127000A0612078C00602D42046FFF75BFA0998E7
:1012800028B1D4E901219047206A401C20622078CF
:10129000C00622D52046FFF74DFA1EE0002E04DBE3
:1012A000B34502DD01A8805D00E03020D4E90121D2
:1012B0009047206A401C2062761CAAF101005FEA78
:1012C000000A0AD1FFF764FDC0680168405CD4E9F8
:1012D00001219047206A401C2062281EA5F10105CB
:1012E000DCDC07E0D4E9012118F8010B9047206A03
:1012F000401C2062381EA7F10107F3DC2046FFF7EF
:101300002FFA032011B043E601694A1C02610878F4
:10131000704700B58FB0CDE9013100210591054935
:101320007944CDE9031011466846FFF7BBFA0FB0C8
:1013300000BD0000E5FFFFFF0A6802F8010B0A602C
:10134000704710B5436913B1AFF3008001E0FFF7B8
:1013500018FA012010BD127800F124010A70002251
:101360004A700122EDE711684FF0FF32E9E7000013
:10137000074B70B50D467B44FFF7CBFF044628466C
:1013800000F0B4FD10B14FF0FF3070BD204670BDCD
:1013900063BC00002DE9FF4F064689B00878FF289E
:1013A00006D0491C2D2805D000244FF0000908E084
:1013B00000200CE00124F8E709EB8903491C00EB4D
:1013C00043090878FF28F7D114B1C9F1000081461C
:1013D000107800252C46AA4629462D2801D02B2816
:1013E00004D1521C2D2813D0002082468B46107841
:1013F000FF280FD04FF0000C0A21521CA5FB0178EA
:1014000004FB018105FB0C11C5194BEB0104EEE750
:101410000120EAE7002108464FF00000BAF1000F72
:1014200002D000EB80004008C0F38158B8F1010FF2
:1014300001DD4FF0FF380C9809EB000755EA040076
:1014400009D04FF0020917F5FA7F0BDA4FEACA709C
:10145000C6E900B012E04FEACA70C6E900B00DB0AC
:10146000BDE8F08FB7F5FA7F0DDDF0487844D0E99C
:101470000010C6E9001040EACA707060FFF78CFCEB
:10148000C0F80090EBE7391E02DAC8F1000200E074
:10149000424600DA794206A800F0BAFC06AB93E8AF
:1014A000070003AB83E8070044F23E005BEA040157
:1014B0000090584604D144F21E012C465D4600912E
:1014C000210C0904014306D10099240444EA15447F
:1014D0002D041039009104F07F41014306D1009999
:1014E000240244EA15642D020839009104F0704189
:1014F000014306D10099240144EA15742D01091F06
:10150000009104F04041014306D10099A40044EA4F
:101510009574AD00891E009104F00041084304D188
:1015200000986D196441401E009042466846002FA5
:10153000CDE9014503A902DD01F089FA01E001F0DE
:101540005EFABAF1000F04460D4601D084F0004463
:1015500040F2FF7724F00040284303D0C4F30A5040
:10156000B84212D1FFF718FCC0F80090C4F30A503B
:10157000B8420AD1AE487844D0E90010C6E900105C
:1015800004F000410843706069E7C6E9005466E76B
:101590002DE9FF4F1F464FF0000A4FF0FF38454638
:1015A00091B0D7E90146CDF83CA0FFF7F1FBC06848
:1015B0000168405C1090B96912986D1C8847396ABF
:1015C000814688470028F6D1B9F1FF3F0AD0002EA6
:1015D00024F4D06411DDB9F12B0F08D0B9F12D0F2F
:1015E0000BD102E0404615B03AE744F48064B96993
:1015F00012986D1C8847761E8146600504A901D5A6
:101600002D2000E02B20002E01F1010B0DF1300800
:101610008DF810003FDDB9F1690F08D0B9F1490F1D
:1016200005D0B9F16E0F02D0B9F14E0F1CD13B4677
:1016300001A8009580E85002DDE912126FF0020067
:1016400013F08FFBC11CCED10EE0B96912986D1C4E
:10165000884781461398761E44F4007405600F98FD
:10166000401C002E0F9016DDB9F1300FEDD0B9F10E
:10167000780F02D0B9F1580F0DD10F9801280AD177
:101680003B46CDE90054DDE91212001F029613F02B
:1016900066FBC11CA7D1109989453ED144F0800456
:1016A00006E01399681CAAF1010A44F4007408606A
:1016B000B9696D1C1298761E884730288146F0D093
:1016C0002BE01099894505D1200603D4761E44F0FD
:1016D000800418E0484609F033F808B3761E0DF18F
:1016E00023018B4544F4007408D2A9F130000BF8B3
:1016F000010B200607D5AAF1010003E0200602D461
:101700000AF101008246A00502D51399681C086001
:10171000B96912986D1C88478146002ED1DC53E0D0
:10172000002E51DDB9F1650F02D0B9F1450F4BD153
:10173000A00549D5B9696D1C1298761E24F4407431
:101740008847002E81460CDD2B2804D0B9F12D0FDF
:1017500007D144F48074B96912986D1C8847761ECD
:101760008146E00501D52D2100E02B2108F8011B61
:10177000CDF8008021E0761E0DF13901884544F452
:1017800000740CD2A9F1300010F0FF0088F80000BE
:1017900002D10099884509D908F1010806E0E00561
:1017A00001D5244801E042F20F708246B9691298CF
:1017B0006D1C8847814613980560002E04DD48465D
:1017C00008F0BEFF0028D6D1F96912988847FF209B
:1017D00053468BF8000088F8000000200A900B9018
:1017E00004AA0CA90AA8FFF7D5FDA00502D46FF042
:1017F0000100F8E614F0240F0AD0E00714D138688D
:10180000DDE90A12031D3B600068C0E900120BE02D
:101810000AA9684608F0E4FEE00705D13868009A96
:10182000011D3960006802602846DCE60C3D0100BD
:10183000023C0100F1D8FFFF0268114413780160F7
:1018400018467047D160054979445161044979448B
:10185000116200211161114600F020B9EDFFFFFF78
:10186000B9010000426842B1016811F8013B23B19F
:10187000521EC0E90012184670470121C160881E3F
:10188000704742685AB1C368016843B983688B42A4
:1018900005D0491E521CC0E90012002070474FF0CD
:1018A000FF3070470FB4002300B589B00CA9009138
:1018B0000B99CB60204B7B440693204B7B440793D2
:1018C00004236FF00042CDE901321D4A7A446B4691
:1018D00008920246002013F040FA09B05DF814FBAC
:1018E00070B506464FF0FF3015460C46324686B0BE
:1018F0000091CDE9010169460020049004A8FFF79A
:10190000D1FF03460498211825B108B10A4600E02A
:1019100022462A6000280DD0002B02DD0098884264
:1019200008D03246081B69460094CDE9010404A89A
:10193000FFF7B8FF06B070BDABFFFFFFC3FFFFFFAF
:101940003B01000000487047085B032403464068E1
:101950008C46002818BF88423CBF03464068F8D335
:1019600018681844884207D00CF1030020F00700E3
:10197000001D411A521A0146081D0A60FEF7B1BD4A
:1019800030B5B0F10A024FEA900E71F100034EEA51
:10199000817EB0EB0E0061EB91014FEA101E4EEA22
:1019A000017E10EB0E0041EB11114FEA102E4EEAB2
:1019B000016E10EB0E0041EB11214FEA104E4EEA82
:1019C000014E10EB0E0041EB1141401841F10001B6
:1019D0004FEAD00040EA41704FEAD10110EB800598
:1019E0004FEA810444EA907444EB01046D1944EB1E
:1019F0000404521BA3414FF0000348BF0A3200D534
:101A000030BD401C41F1000130BD10B50446FEF769
:101A100031FD0068005D00F0010010BD2DE9F041CE
:101A20001F46044603260168072A01F4006004DB10
:101A300008B116A505E016A503E008B115A500E05C
:101A400015A521F010002060A069C01EA0610FB193
:101A5000401EA0612046FEF76DFE4FB1D4E9012182
:101A600038469047206A401C2062C01C206206E075
:101A7000206AFAE7D4E9012115F8010B9047761E98
:101A8000F8D22046FEF76CFEBDE8F0814E414E00D4
:101A90006E616E00494E4600696E66002DE9F34F97
:101AA0004FF0000A0C4656468DB001200C9001F113
:101AB0000C000B9062690B9801219047051E2DD0F8
:101AC000252D2CD0216A8847C0B162690B9801216D
:101AD0009047216A88470028F7D16269411E0B9818
:101AE000904700E0761CA1690D988847216A8847D5
:101AF0000028F7D1E1690D988847DBE7A1690D98C7
:101B00008847A842074601D1761CD3E7E1690D98C2
:101B100088477F1C02D1BAF1000F6FD06BE1626978
:101B20000B9800273D46394690472A2804D1626920
:101B30000B98012190470125DFF8D08262690B984C
:101B400001219047A0F130010A290AD24745E5DC7E
:101B500007EB870100EB4107303FDFD445F010056C
:101B6000ECE7E90601D46FF000476C280AD04C2856
:101B700014D0682815D06A280DD074281CD07A2873
:101B80001AD01DE062690B98012190476C2802D0A1
:101B900045F0040514E045F002050DE045F0200590
:101BA0000AE062690B9801219047682802D045F04D
:101BB000080505E045F4006562690B98012190472E
:101BC000C4E9015765283DD019DC58287AD00CDCCF
:101BD000452837D004DC252826D041289ED131E085
:101BE00046282FD0472899D12CE05B2877D0612850
:101BF00028D063287CD0642823D15AE0F6E06F28EF
:101C000048D008DC66281DD067281BD0692821D061
:101C10006E2816D127E0702845D0732868D0752823
:101C200047D078280DD14DE0A1690D988847252827
:101C300005463FF469AFE1690D9888476D1C3FF494
:101C40006AAFD8E00D9923466A466FF0010013F0A1
:101C500084F8C5E045F0400023464FF00002606084
:101C6000A80736D43EE0E8077FF447AF2068011D9F
:101C700021600068290501D506701BE7290701D5F9
:101C8000068017E7A90703D5F117C0E9006111E73E
:101C900006600FE745F0400023464FF00802606001
:101CA000A80716D41EE040F60E0125EA0100606088
:101CB00016E045F0400023464FF00A026060A80796
:101CC00007D40FE045F040006060A80708D5234620
:101CD00010220D996FF00100AFF3008080E007E063
:101CE000102223460D996FF00100AFF3008077E0DA
:101CF0004FF0000963284F46C8464B46CB4602D0FA
:101D00005B2806D038E0E80601D40120A060012756
:101D100032E06269D4F80CB00B98012190475E283C
:101D200007D14FF0010949466269D4F80CB00B980D
:101D30009047216939B900210A4603AB43F82120B5
:101D4000491C0829FADBD8B3216949B308F1010815
:101D500062690B98012190475D28F4D1B9F1000F19
:101D600009D0002003A951F82020D24341F82020B7
:101D7000401C0828F7DB03AB2069002820794FEAD4
:101D800040701ED05B462246CDF80080CDE9019719
:101D90000D9900286FF0010020DAAFF300801FE0FA
:101DA000C11703AA00EBD1614B1121F01F0102EB17
:101DB0008302411A13680120884003431360C7E778
:101DC00019E00D99224600286FF00100009702DA11
:101DD000AFF3008004E0AFF3008001E0AFF30080D8
:101DE00000280ADA401C06D10C9820B14FF0FF30D1
:101DF0000FB0BDE8F08F5046FAE7E90701D10AF1CC
:101E0000010A064400200C9054E60000CCCCCC0C17
:101E10002DE9F047814616468AB0334878440DC80C
:101E20008DE80D0030487844801C03AC0DC884E870
:101E30000D0041F69B300844372190FBF1F290FBF6
:101E4000F1F5A5F1800501FB12041B3C02D56442AB
:101E5000012000E00020DFF890A080460027FA442F
:101E6000AAF1BE0A0DE0E00709D03246684607EB4A
:101E700047010AEB810100F0D6FD8DE807006410F0
:101E80007F1C002CEFD1184F7F44AC3F18E0E807CF
:101E900014D007EB04100DF1180A90E80E008AE840
:101EA0000E00C068F04201D198190890324606A988
:101EB00003A800F0B8FD03AB83E807006D10641CB5
:101EC000002DE4D132466946B8F1000F03A802D0D4
:101ED00000F081FD01E000F0A6FDC9E90001C9F8AC
:101EE00008200AB0BDE8F08718320100007B00F03E
:101EF0008000704710B500F077FABDE8104000F0A0
:101F00006EBA70477546FFF71DFDAE46050069467F
:101F1000534620F00700854618B020B5FEF77AFA40
:101F2000BDE820404FF000064FF000074FF00008DA
:101F30004FF0000B21F00701AC46ACE8C009ACE85B
:101F4000C009ACE8C009ACE8C0098D46704710B5BF
:101F5000FEF722FF006810BD10B50446FEF71CFF17
:101F6000046010BD3A2800D2303820F02002412A07
:101F700001D3A2F13700884201D34FF0FF30704700
:101F80002DE9FF4F1F464FF03C0987B04FF000424C
:101F9000DDE9141001F10108DDF858A002EA405013
:101FA0000390002004908346054604460590B969D5
:101FB000461E08988847AAF1010A0290BAF1000F5C
:101FC00037DD02982E2815D01021FFF7CBFF00280F
:101FD0002ADB4FF0010B0499014316D0B9F1000F31
:101FE0000BDB4A46C11700F027FA05430C43A9F161
:101FF000040905E00120059007E008B145F001055E
:1020000001200490059800B9361DB969089808F1B7
:1020100001088847BBF1000FAAF1010A0290CDD058
:102020000999C1F80080C9E70298702808D05028A3
:1020300006D0F96908988847BBF1000F14D04FE02B
:10204000002002900120BBF1000F049009D0B96973
:10205000089808F101088847AAF10109B9F1000FB1
:1020600007DCF969089888476FF001000BB0BDE8FC
:10207000F08F2B2804D02D280CD14FF0FF30049086
:10208000B969089808F101088847A9F10109B9F16F
:10209000000FE6DD411CE4D00A21FFF763FF0028B2
:1020A000DFDB029908F1010801EB810100EB41003F
:1020B0000290B969089888470A21FFF753FF099AE7
:1020C000A9F10109B9F1000FC2F8008001DD002873
:1020D000E7DAF969089888470499029800FB0166D5
:1020E00055EA040004D004F04041090002D006E0A3
:1020F000039898E0A40044EA9574AD00B61E04F07D
:102100000041080002D16D196441761E159810F047
:10211000240F03D04FF00B095C4803E04FF028096F
:102120006FF07D008246564507DAAAEB0601894426
:10213000B9F1410F01DD4FF0410901200021A9F162
:10214000010200F079F9024628400B46214008437D
:1021500001D0012100E00021501E029143F1FF3126
:1021600028402140084301D0012000E000200299CE
:10217000834651EA0B014FD0002108464FF0000082
:10218000039900F4400039B100EB80004FF44001A6
:1021900000EBD07001EA60008015012802DD4FF0ED
:1021A000FF3000E013D0401C36D0029860B3BBF182
:1021B000000F0CD14A460120002100F03DF92840D3
:1021C0002140084301D0012000E00020E0B10120BF
:1021D0004A46002100F030F9034640190A466141A1
:1021E0002D1A8C4111D3B9F1400F09DD159810F06B
:1021F000240F02D0AAF1340603E0AAF1170600E08A
:10220000761C00254FF0004406E05B1E42F1FF32D1
:1022100020EA030521EA0204CAF10100B04206DA0D
:102220001B49039808430190002000900EE0039A98
:10223000C4F3D321E80A0A43164940EA44500A434A
:102240003146CDE90002684608F01EFA159810F0F4
:10225000240F0BD01598C00715D13868DDE900129E
:10226000031D3B600068C0E900120CE002A869464B
:1022700008F0B6F91598C00705D13868029A011D13
:102280003960006802604046F0E6000002FCFFFF93
:102290000000F07F0000F03F2DE9FF4F92461D4601
:1022A00085B04FF00041DDE9124BDDE914727F1E6D
:1022B00001EA4B50414940F0FF4940EA0108002142
:1022C00022F020004928049102D04E2828D04CE06A
:1022D0003BA0012607C88DE80700A9690698641C81
:1022E00088477F1E014606D41DF8060018B121F06C
:1022F000200181420BD0E96906988847032E34D02B
:10230000082E32D06FF0010009B0BDE8F08F761CC6
:10231000032E01D0082EE0D1601CCAF80000DCE7D3
:10232000A9690698641C88477F1E2AD420F02000E3
:10233000412826D1A9690698641C88477F1E20D4AD
:1023400020F020004E281CD1A9690698641C8847FB
:102350007F1E48F4002849F48009CAF8004001D4DF
:10236000282806D0E969069888475FEACB7012D022
:1023700022E0A9690698641C88477F1E01D40028C2
:1023800003DAE96906988847BCE72928F1D1641C7B
:10239000CAF80040E9E71BF0240F07D02868049929
:1023A000031D2B600068C0E9001805E02868021DC5
:1023B0002A600068C0F800902046A5E70000F07F82
:1023C000494E46494E4954590000000010B5044694
:1023D000AFF300802046BDE81040FDF7EFBF0028B6
:1023E00001D008F0B4B9704710B5012805D000211C
:1023F00003A000F034F8012010BD09A1F8E70000A7
:1024000053494752544D454D3A204F7574206F66DD
:102410002068656170206D656D6F72790000000045
:102420003A2048656170206D656D6F727920636F29
:102430007272757074656400B2F120030AD5C2F13E
:10244000200301FA02F120FA03F300FA02F041EA54
:102450000301704700FA03F14FF00000704770B5B8
:1024600005460C460A2000E06D1C00F011F835B15D
:1024700028780028F8D102E0641C00F009F814B1B3
:1024800020780028F8D1BDE870400A20AFF3008022
:1024900008B569468DF800000320ABBE08BD5FEAB1
:1024A000400C08BF91F0000F4FEA8C234FEAC12285
:1024B00043EA51514FEA1C5018BF00F5F0404FEA73
:1024C000300018BF41F000415FEA6C5C00F02980E9
:1024D000BCF1FF3F08BF40F080407047130C06BFBF
:1024E00012044FF0100C4FF0000C130E04BF120238
:1024F0000CF1080C130F04BF12010CF1040C930F24
:1025000004BF92000CF1020CD30F04BF52000CF177
:10251000010C11464FF00002A0F11F00A0EB0C00CF
:10252000704711F0004F08BF704731F000413FF491
:10253000D5AF0B0C06BF09044FF0100C4FF0000C88
:102540000B0E04BF09020CF1080C0B0F04BF0901AC
:102550000CF1040C8B0F04BF89000CF1020CCB0FA3
:1025600004BF49000CF1010CCCF12003A0EB0C00DE
:1025700022FA03F302FA0CF241EA030100F101002E
:10258000704720F07F4C80EA030023F07F47ACEBDC
:10259000070303F57C5300F0004003F1FF032DE92E
:1025A00080494FEA154B09B44FEA144325EA0B4E14
:1025B00024EA03480FF2042606EB132749083E7865
:1025C0005FEA320203FB0667C7F5000707FB06F662
:1025D0004FEA54374FEAD64606F1020607FB066C6F
:1025E000CCF1005C4FEA1C472CEA074C07FB06F4D1
:1025F0000CFB06F504EB15464FEA961634BF002097
:102600004FF000404FEAD13706FB07FC4FEA1C4C65
:102610000CFB0BF7D21B03FB0CF761EB07010CFB68
:102620000EF7B0EB074072EB17420CFB08F734BF14
:10263000A2EB0742B2EB074261EB17414FEA0C44B1
:102640004FEA910706FB07FC4FEA1C4C0CFB0BF70B
:10265000B0EBC74072EB573203FB0CF734BFA2EB71
:10266000C742B2EBC74261EB57310CFB0EF7B0EB40
:10267000C70072EB57720CFB08F734BFA2EBC7021E
:10268000B2EBC70261EB5771039F4FEA816141EAE8
:10269000921104EBCC044FEAD1374FEA826206FB79
:1026A00007FC42EA90124FEA80604FEA1C4C0CFB98
:1026B0000BF7D21B03FB0CF761EB07010CFB0EF7CA
:1026C000B0EB074072EB17420CFB08F734BFA2EBEC
:1026D0000742B2EB074261EB17414FEA8C554FEAD4
:1026E000910704EB9C2406FB07FC4FEA1C4C0CFBF7
:1026F0000BF7B0EBC74072EB573203FB0CF734BF5C
:10270000A2EBC742B2EBC74261EB57310CFB0EF7AD
:10271000B0EBC70072EB57720CFB08F734BFA2EBAB
:10272000C702B2EBC70261EB577115EB4C254FEABC
:10273000816141EA92114FEA82624FEAD13742EA5F
:10274000901206FB07FC44F100044FEA80604FEA58
:102750001C4C0CFB0BF7D21B03FB0CF761EB0701C6
:102760000CFB0EF7B0EB074072EB17420CFB08F7BF
:1027700034BFA2EB0742B2EB074261EB174115EB06
:102780001C154FEA813141EA92414FEA823242EA16
:1027900090424FEA80304FEA0C7644F1000448EA58
:1027A00003434EEA0B484FF0000EB2EB080C71EBFE
:1027B000030724BF624639464EEB0E0E4FF0000B66
:1027C0000018524149414BEB0B0BB2EB080C71EB7B
:1027D00003077BF1000B24BF624639464EEB0E0E19
:1027E0004FF0000B0018524149414BEB0B0BB2EB81
:1027F000080C71EB03077BF1000B24BF62463946DE
:102800004EEB0E0E51EA020718BF46F0010616EB1A
:102810000E7655F1000254F1000103D5BDE889019F
:10282000BDE80088BDE88901BDE80048B6195241FD
:1028300041EB0101A3F10103704780807F7E7D7C25
:102840007B7A7978777676757473727171706F6E42
:102850006E6D6C6C6B6A6A696868676666656464ED
:10286000636362616160605F5F5E5E5D5D5C5C5B77
:102870005B5A5A59595858575756565555555454E6
:10288000535352525251515050504F4F4F4E4E4D44
:102890004D4D4C4C4C4B4B4B4A4A4A494949484890
:1028A00048474747474646464545454444444443D0
:1028B00043434342424242414141000046EA064608
:1028C000A3F570534FEA164646EA42564FEAD22223
:1028D00042EA415210B54FEAD121A3F1010300F0C1
:1028E00017F820F0004000F1010C00F0004701EB68
:1028F00000501146BCF5006F40EA070000D210BD41
:1029000002484FF0000140EA070010BD0000F07FD0
:10291000002B26D4770021D01CB54FEA370703B42B
:102920004FF010004FF010014FF000000FBCBDE859
:1029300010400BF1010BBBF1010F08BF5FEA170755
:1029400022BF12F1010211F101014FF0004143F1E8
:10295000000300F0004043EA00007047F9D3570835
:10296000DAE746EA064613F1400F4FEA16461FDD46
:1029700013F1200FDFBF16430A46002120335B42CC
:10298000C8D0C3F1200746EA064602FA07F74FEA25
:10299000164646EA0706C3F1200722FA03F201FAB7
:1029A00007F721FA03F14FF0000342EA0702B1E70B
:1029B00046EA020646EA06464FEA164646EA010697
:1029C000BCBF46EA0646360C4FF000034FF000024B
:1029D0004FF000019EE72DE9C048934630B491E8DE
:1029E000380007C831EA400C48BF34EA430C03D52D
:1029F000FFF7C7FDFFF78CFFF0BCBDE800882DE9AD
:102A0000C048934630B491E8380007C831EA400C1A
:102A100048BF34EA430C03D5FFF7B3FDFFF74EFF81
:102A2000F0BCBDE800882DE9C048934630B491E879
:102A3000380007C810F0804F08BF13F0804F03D153
:102A400000F019F8FFF764FFF0BCBDE800882DE93D
:102A5000C048934630B491E8380007C810F0804F62
:102A600008BF13F0804F03D100F005F8FFF726FFF1
:102A7000F0BCBDE8008820F07F4780EA030023F027
:102A80007F4C07EB0C03A3F57C5300F00040A3F14F
:102A9000FE0392F0000F00F0B38095F0000F00F0FD
:102AA00077802DE901494FEA11404FEA144621EAA7
:102AB000004800FB06FC24EA064708FB06F607FB75
:102AC00008F800FB07F718EB06484CEB164C4FEAEA
:102AD000124B18EB07484FEA15464CEB174022EA19
:102AE0000B4E0BFB06FC25EA06470EFB06F607FB22
:102AF0000EFE0BFB07F71EEB064E4CEB164C4FF091
:102B000000061EEB074E4CEB174B18EB0B0840F181
:102B1000000018EB0E0B58EB000840F100008F1A74
:102B20004FF000013CBFC943661B14BFB5EB040C5A
:102B300000213CBFC943F61B4FEA17444EEA8E0EF4
:102B400027EA04454FEA1C4704FB07622CEA074CBE
:102B500005FB07F70CFB05F604FB0CFC16EB074620
:102B600042EB174216EB0C4642EB1C421BEB0606EF
:102B700058EB0202414146EA9E0601D5BDE80189B3
:102B8000B619524141EB0101A3F10103BDE80189EE
:102B90004FEA14454FEA114724EA054621EA074C5B
:102BA00005FB07F406FB07F70CFB06F105FB0CFC25
:102BB00011EB074144EB17444FEA124711EB0C416C
:102BC00044EB1C4422EA074C05FB07F206FB07F71F
:102BD0000CFB06F605FB0CFC16EB074642EB174216
:102BE00016EB0C4642EB1C456A1854F1000148BF35
:102BF0007047B619524141EB0101A3F1010370473F
:102C000095F0000F37D04FEA11424FEA144721EAFE
:102C1000024624EA074C02FB07F106FB07F70CFB10
:102C200006F402FB0CFC14EB074441EB17414FEA9E
:102C3000154714EB0C4441EB1C4125EA074C02FB01
:102C400007F506FB07F70CFB06F602FB0CFC16EB80
:102C5000074645EB174516EB0C4645EB1C4212198F
:102C600051F1000148BF7047B619524141EB0101D3
:102C7000A3F1010370474FEA14454FEA114724EAD4
:102C8000054621EA074C05FB07F106FB07F70CFB9D
:102C900006F24FF0000605FB0CFC12EB074241EB7D
:102CA000174112EB0C4251EB1C4148BF7047921880
:102CB00041EB0101A3F1010370470000EFF309812B
:102CC00041B1F1EE101A40F8041D20ED200A3E49F2
:102CD0000A6810607047B0EC200A02C8E1EE101AD2
:102CE0003A490A681060704772B64EF62250CEF22A
:102CF000000040F2FF01C0F2000101704FF000003F
:102D000080F3098804F0D2FF40F25020C2F2004064
:102D1000016881F3088840F2D210C2F2004040F20C
:102D2000D311C2F200410A78027040F24825C2F283
:102D3000004540F24C21C2F200410A682A60106846
:102D400080F30988EFF3148040F0020080F31488C8
:102D5000BFF36F8FBDE8F00F0FBCBDE8005006BC9D
:102D600062B608471A484FF0805101607047184812
:102D70004FF080510160704772B6EFF3098020E98F
:102D8000F00F40F24825C2F200452E6830607446CC
:102D900004F08CFF40F2D210C2F2004040F2D31196
:102DA000C2F200410A78027040F24C21C2F20041A6
:102DB0000A682A6044F0F40E1068B0E8F00F80F35F
:102DC000098862B670470000480200244C020024C3
:102DD00004ED00E0FEE700000549002010B5486062
:102DE00000F0A6F800F006F8BDE8104000F086B844
:102DF000700100242DE9F041104F002635463E8039
:102E00007E80BE60FE607E61BE613E61FDF71CFBA0
:102E1000002480467E6100F049F800F057F8641CF9
:102E2000786924040544240CF4D0C7E904564046CC
:102E3000BE61BDE8F041FDF70BBB0000700100244E
:102E400003490969884201D9401A70470020704738
:102E50007001002410B5FDF7F7FA04494C69FDF73D
:102E6000F7FA2046BDE81040FFF7EABF70010024E2
:102E700010B5FFF7EFFF0446FDF7E6FA034A00211D
:102E80005161FDF7E5FA204610BD000070010024F5
:102E900010B5FDF7D9FA04498C69FDF7D9FA204637
:102EA000BDE81040FFF7CCBF7001002410B5064C00
:102EB0002088401C2080608810B900F051F8A06084
:102EC0006088401C608010BD7001002410B50A4C61
:102ED0006088401E0004000C60800CD100F040F8B7
:102EE000E060A168401A6169814200D26061A16915
:102EF000814200D2A06110BD7001002410B5FDF721
:102F0000A3FA0446FFF7D2FF0548102103F046FC60
:102F1000FFF7DCFF2046BDE81040FDF799BA00003E
:102F200000C002240149486070470000700100247D
:102F300010B501F0D9FD08490A6842F080720A60B4
:102F4000064900224A600A6842F001020A60BDE8B0
:102F50001040FFF7E7BF0000FCED00E0001000E0CC
:102F60000148406870470000001000E0F0B5BFF372
:102F70004F8FBFF36F8F1D4900200860BFF34F8F45
:102F8000BFF36F8F1A4C216841F400312160BFF309
:102F90004F8FBFF36F8F164970310860BFF34F8FAB
:102FA000081F006843F6FF75104E1036C0F34E310F
:102FB000C0F3C90305EA4112184642EA8077376038
:102FC000401EFAD2491EF5D2BFF34F8F206840F45D
:102FD00080302060BFF34F8FBFF36F8F03484C30BA
:102FE000016841F004010160F0BD000050EF00E015
:102FF00014ED00E02DE9FF4702A927A00CF0C0FB6B
:1030000002A80AF0F5FD24A18146024626A0FDF79C
:103010006FFB2D4C002503AE41F2727740F6B838B5
:103020002AA0FDF765FB32A03A464946FDF760FB52
:103030003946484610F098FB002860600ADB35A04E
:10304000FDF756FB39A0FDF753FB03F0A1FA68B179
:103050003EA016E046A0FDF74BFB00224346CDE91B
:1030600000561146104604F09DFEE1E74CA0FDF726
:103070003FFB606801224FA103F010FA002805DA37
:103080004EA0FDF735FB10F051FBC9E751A0FDF74D
:103090002FFBBDE8FF8700003138332E3233302E4E
:1030A00034302E3339000000686F7374206E616D08
:1030B00065203A202573202C20686F73745F697037
:1030C000203A2025730A00005C020024312EBFAA9A
:1030D000CABCC1ACBDD3B6D4D3A6D4C6C6BDCCA8D9
:1030E000B5C4B7FECEF1C6F72E2E2E0A00000000A2
:1030F000B7FECEF1C6F74950B5D8D6B7A3BA2573F7
:10310000A3ACB6CBBFDABAC5A3BA253064A3A10A73
:1031100000000000C1ACBDD3D4C6C6BDCCA8B7FE6C
:10312000CEF1C6F7B3C9B9A6A3A10A00322E4D51FC
:103130005454D3C3BBA7C3FBD3EBC3DCD4BFD1E987
:10314000D6A4B5C7C2BC2E2E2E0A00004D51545431
:10315000D3C3BBA7C3FBD3EBC3DCD4BFD1E9D6A495
:10316000B5C7C2BCCAA7B0DC2E2E2E0A00000000D4
:10317000C1ACBDD3D4C6C6BDCCA8B7FECEF1C6F790
:10318000CAA7B0DCA3ACB5C8B4FD33C3EBD4D9B384
:10319000A2CAD4D6D8D0C2C1ACBDD3A3A10A000064
:1031A000332EBFAACABCB6A9D4C4CFFBCFA22E2E41
:1031B0002E0A000074656D7000000000BFCDBBA733
:1031C000B6CBB6A9D4C4CFFBCFA2CAA7B0DC2E2EF3
:1031D0002E0A0000342EBFAACABCD1ADBBB7BDD3E6
:1031E000CAD5B6A9D4C4B5C4CFFBCFA22E2E2E0A01
:1031F000000000007047000010B50BF01DF90648F4
:103200004FF40041006800F58B50016040210160DF
:103210000121016010BD00004017002470B5A2B06C
:1032200006460024694601258DF80450680306907F
:103230008DF80F504FF4C3608DF80E500D90202084
:103240008DF81D408DF80C4009948DF81F401294A4
:103250008DF832508DF828408DF8605017904FF05F
:1032600040508DF838400F9402948DF861408DF8ED
:103270001C4014948DF862400B948DF81E50009001
:10328000A8038DF811508DF840408DF8314005901D
:1032900002208DF812408DF85640169030468DF879
:1032A00020508DF854408DF830408DF810508DF836
:1032B0000D408DF8554011948DF84C5000F0CEF92A
:1032C0001B9569058DF871404FF406708DF86850B4
:1032D00019948DF880408DF870401F918DF87840DA
:1032E0001D9119A98DF881402190304600F066F9B2
:1032F00022B070BD2DE9F047846A00F118069246AD
:103300008B680027254656F82420D2F80CC0BCF163
:10331000000F63DB91F800805FEA487837D5D1F879
:1033200024806FF30F0C4CEA080C4CF4803CC2F87C
:103330000CC0D0F800C0DCF8608048F48018CCF8ED
:10334000608091F800C05FEA0C7C20D5B1F82CC0F9
:10335000A2F80AC0D2F80CC04CF4003CC2F80CC071
:10336000D1F830802CF4402C4CEA080CC2F80CC088
:10337000D0F800C0DCF8648048F48018CCF8648091
:103380000068D0F850C04CF0806CC0F850C008788D
:10339000C0060BD59068D1F818C06FF30D0040EA55
:1033A0000C009060D06840F08060D060087810F029
:1033B000140F14D0D068641C042C40F04040D0603E
:1033C00000D3241F012756F82420D068002806DAED
:1033D00056F82500C16821F00041C1608DE01868F1
:1033E0007F1C10604FF000099068D3F804C06FF3A1
:1033F0000D0040EA0C009060D3F80880DFF8B8C1F7
:10340000B8F1000F0BD04346D8F80080C2F8048012
:1034100000EA0C00B3F8048040EA084003E000EA48
:103420000C00C2F8049090600878C006D0680FD5F0
:10343000B1F8208020F4F00040EAC840D060D1F814
:103440001C806FF3110040EA080040F480201CE06B
:10345000D1F804806FF30E0040EA0800D06091F8C4
:1034600000805FEAC87806D0D1F8148020F440309C
:1034700040EA0800D0600878800607D5D068D1F807
:10348000108020F0406040EA0800D06008784007D3
:1034900007D59068D1F8288020F4404040EA080021
:1034A0009060D06820F0804040F02040D06091F8DB
:1034B00000805FEA887869D5D1F80C8020F06070D0
:1034C00040EA080061E0641C042C00D3241F56F875
:1034D0002420D068002813DA56F8251000200AE0CE
:1034E000CA686D1C042D22F00042CA6000D32D1F53
:1034F000401C56F82510B842F2D30220BDE8F087F0
:1035000018687F1C10609068D3F804806FF30D007A
:1035100040EA08009060D3F80880B8F1000F0BD0A3
:103520004346D8F80080C2F8048000EA0C00B3F8E3
:10353000048040EA084003E000EA0C00C2F804906E
:1035400090600878C006D06808D5D1F81C806FF369
:10355000110040EA080040F4802011E0D1F8048016
:103560006FF30E0040EA0800D06091F800805FEA37
:10357000C87815D0D1F8148020F4403040EA080013
:10358000D06020F0804040F00040D0609B68002B6D
:1035900099D19068BAF1000F04D040F0004003E0E8
:1035A000D068EEE720F000409060D06840F0805096
:1035B000D06000203461A1E7FFFF00C030B5026891
:1035C00002F58052136847F60204A3430C682343B4
:1035D00013600A790B7B120342EAC3338A681343F0
:1035E000026802F5805254684DF20105AC431C4359
:1035F00054604B7B0A6A42EA0343026802F5805238
:10360000D2F80041124D2C401C43C2F800410A7D03
:103610004B7F120142EA03330A691343026802F541
:103620008052D2F804410B4D2C401C43C2F8044197
:1036300000688A69097F00F5805042EAC171D0F8BC
:103640000821054B1A400A43C0F8082130BD00008C
:1036500000C0FEFFEFEFC0FFFFFFC07F30B50B687B
:103660008A680C7B1A430B79DB0643EAC4531A437E
:103670004B7B42EA83528B7B42EA4352CB7B42EA4A
:1036800003530A7C002A7CD0002243EAC2434A7CCE
:10369000002A78D0002243EA42428B7C42EA03426D
:1036A0004B691A438B691A430B7F42EA03324B7F03
:1036B00042EAC3238A7F002A66D0002243EA82229C
:1036C000CB7F42EA432391F82020002A7ED00022BB
:1036D00043EA02224B6A1A4391F8283042EA031364
:1036E000CA6A134302681468434D2C401C4314609B
:1036F00091F83C2091F83830520642EA036291F882
:10370000303042EA834291F8313042EA434391F843
:103710003220BAB3002243EA02434A6B13430268E1
:103720005468364D2C401C43546091F840304A6C2C
:1037300042EA03230268D46840F20F15AC431C43ED
:10374000D46091F854300A6D42EA430391F84C205A
:10375000EAB30022B1F84840D20142EA04421343DE
:103760000268146F4FF60D752C401C43146791F8D6
:10377000553091F8562042EA43030268D2F890404F
:1037800003E02BE032E02BE02CE024F003041C43A8
:10379000C2F890400268D2F8003D8C6D23F07203AD
:1037A0002343C2F8003D91F86020CB6D12B3002294
:1037B000006843EA821291F8613091F862101B01AF
:1037C00043EAC1010A43D0F8301D01E00CE00FE0EC
:1037D00021F07B011143C0F8301D30BD012254E7B8
:1037E000012258E7012269E7012271E7012292E7ED
:1037F0000122AFE70122DBE7838004000080F8C0EC
:1038000030B5D1E901230D681A43D1E903342343CC
:103810001A434B691A438B691A43D1E90734496A41
:10382000012D056807D01A4322430A436FF30E05A2
:103830002A4302600AE025F4F845234329430B4359
:10384000416803606FF30E010A434260002030BDFF
:10385000426942EA410141610020704718B5D1E94F
:1038600000236FF01F041A438B68C96804EB4313ED
:1038700043EA41210A4300920261002018BD000082
:10388000F0B5D1E900346FF00F055B1E2E0105EB9A
:10389000041423438C682F034FEA054C0D8A06EB72
:1038A00004248E8A2343CC68097E4FF07F4E012A80
:1038B00007EB05450CEB06560EEB01610CD0826858
:1038C0003F1107EB043423432B4333430B4302F0F4
:1038D0007042134383600FE08768084A1740220351
:1038E000C468A2F5805232433A4382602B430B43B3
:1038F00004F070442343C3600020F0BDFF0F0FFFAE
:1039000002490888421C0A80704700005C020024BB
:1039100010B528B190F83510022903D080214165F7
:10392000012010BD1F4A4FF4956301688C189C421A
:1039300007D8042280F83520086820F001000860CC
:103940002DE00C6824F00E040C6001680A440A683B
:1039500022F001020A60016E0A6822F480720A6095
:1039600090F85C100122104B02FA01F11960416ECF
:103970004B68846E23434B60C16E41B10B6823F4E6
:1039800080730B60016F4B68446F23434B600021D1
:1039900080F8341080F83520016D01B1884700208F
:1039A00010BD0000F0FFFDBF0454025870B5026C5A
:1039B00000F12C03456C53F8221025B1DC6904B1E9
:1039C0006D1C002423E0012070BD0E690E604FF0D5
:1039D0008076CE604E692EB14E698E60CE6846F01C
:1039E0000076CE60CE6846F00046CE601E6A1EB1FC
:1039F000CE6846F08046CE609E69761EA64205D906
:103A0000521C042A00D3121F53F82210641CAC422B
:103A1000DBD3006800F58050C0F8281100209861C1
:103A200070BD10B500EB8104E46A0AB1042903D328
:103A300001214165084610BD22602261E06840F026
:103A40008070E0604BB1A36040F000706361E060A3
:103A500040F00040E060002010BDE068F8E7002979
:103A60007DD00268126802F00C02CA620268126815
:103A7000C2F3001281F828200268126802F0600286
:103A80004A620268126842F30022521C81F8202028
:103A900002681268C2F34022CA770268126842F3D1
:103AA0008022521C8A7702681268C2F3C0224A77C9
:103AB00002681268C2F300320A770268126802F4E0
:103AC00000528A610268126802F480424A61026808
:103AD0001268C2F300428A740268126842F34042DC
:103AE000521C4A740268126842F3C042521C0A74A3
:103AF00002681268C2F30052CA7302681268C2F305
:103B000040528A7302681268C2F380524A73026894
:103B10001268C2F3C0520A730268126802F0E062CF
:103B20008A6002681268C2F3C0620A710268126891
:103B300002F0E0420A6002685268C2F30D024A6372
:103B40000268526842F30042521C81F83220026837
:103B50005268C2F3404281F83120026800E062E01E
:103B60005268C2F3804281F8302002685268C2F382
:103B7000006281F8382002685268C2F34462CA6366
:103B80000268D268C2F3002281F840200268D2683D
:103B900002F00F024A640268126FC2F3400281F819
:103BA00054200268126F42F3C012521C81F84C205C
:103BB0000268126F02F070020A650268126F120C3E
:103BC0008A640268D2F8902002F0010281F856203F
:103BD0000268D2F89020C2F3400281F855200268B2
:103BE000D2F8002D02F072028A650268D2F8302DF8
:103BF00002F02302CA650268D2F8302DC2F3C00277
:103C000081F862200268D2F8302DC2F3001281F8E8
:103C100061200068D0F8300D40F38010401C81F81E
:103C2000600000207047012070472DE9F043066CCA
:103C300000F12C080746406C0C464FF0000958F87C
:103C4000265018B9384600F05FF9E8B3002017E0B5
:103C5000696939B3C4B32969216079696160A4686D
:103C600094B36969216079696160E968761C042E02
:103C7000C1F30E0900D3361FA468401C58F8265023
:103C8000D8F81810491E8142E2D8ECB1E868C0F3B8
:103C90000E01A1EB09007969814205D32969C4E9C4
:103CA00000100EE02969DDE7696969B129692160C1
:103CB00079696160A16839B16A690A607A69801AB4
:103CC00048600020BDE8F083FFE70120FAE770B507
:103CD00000F12C040D46D4E9056111B900F014F986
:103CE00068B1A069761E3044042800D3001F54F840
:103CF0002000C068C0F30E002860002070BD0120C5
:103D000070BD0000F8B5040003D094F8510010B164
:103D100004E00120F8BD204600F05AF9232084F881
:103D200051006F48016841F002010160006800F035
:103D300002000090207A08B14FF4000001F0C4FAAC
:103D4000206800F58050016841F00101016000F039
:103D500017FCE02605464FF4FA7706E000F010FC69
:103D6000401BB84201D9042049E0206800F580508A
:103D70000068C007F2D12068D0F8000220F4706516
:103D800000F0B2FE5749584A0144914202D245F42C
:103D9000007516E05549564A0144914202D245F455
:103DA00040750EE05349544A0144914209D35349A6
:103DB00008445349884202D245F4807501E045F435
:103DC00080652068C0F8005200F08EFE4D49B0FBBF
:103DD000F1F02168401EC1F8DC002046FFF71EFA12
:103DE000206800F58050D0F8001121F4E01141F472
:103DF0000021C0F800116169880704D001206065C6
:103E000084F8516085E7206800F58050D0F80821DB
:103E100047F6FE739A4342EA4101C0F808110021B7
:103E20000A46E06801EB410300EBC30004EB8103A9
:103E3000491C0260042942608260C2609861F0D32C
:103E4000A2620323206800F58050C0F82C3120685E
:103E5000E16800F58050C0F814112068E16800F5B1
:103E60008050C0F820110021206901EB410500EBD2
:103E7000C50004EB8105491C026004294260826090
:103E8000C26002614261E862EED3E263226462646E
:103E9000E264A264216801F58051C1F830312168E3
:103EA000236901F58051C1F81C31216801F5805169
:103EB000C1F82801606821688088C1F80003606843
:103EC0000178D0F8010041EA00202168C1F804031C
:103ED0006265102084F8510084F852000020F8BD7B
:103EE000F444025800D3CEFEC0E1E40040F1E9FD05
:103EF00040787D0100796CFC005A6202001F0AFACA
:103F000080F0FA0240420F00F0B5C16B2C30002562
:103F10002C462B46866950F8212036B30020F0BD90
:103F20006D1CD60019D5641C012C00D10B46491C10
:103F3000042900D3091F50F82120D268002A07DB8A
:103F4000520005D50122C261491C042900D3091F72
:103F5000103080E81A000120F0BD920013D5012432
:103F60000B46491C11E050F82120D268002A01DBE1
:103F7000042DD5D34CB350F8232000214FF0807688
:103F80004FF040771FE0491C641C0429EBD3091F44
:103F9000E9E715691560D66055690DB19560D76080
:103FA000D56845F00045D560D0F820C0BCF1000FC1
:103FB00002D045F08045D5605B1C042B00D31B1F4D
:103FC000491C50F82320A142E3D300218161A5E7D9
:103FD000334800B587B0016841F001010160016814
:103FE00001F001010591016841F0020101600168E1
:103FF00001F002010591016841F0040101600168CE
:1040000001F004010591016841F040010160006880
:1040100000F04000059022480838016841F4004152
:104020000160016801F400410591016841F48031AB
:104030000160016801F480310591016841F40031AB
:1040400001600068002100F4003005908620009097
:104050000220CDE9010103900B200490694611482C
:1040600000F09CF94FF4006000900F48694600F0A2
:1040700095F9322000900D48694600F08FF94FF411
:10408000C04000900A48694600F088F900220121EA
:104090003D2000F0DBFA3D2000F0CBFA07B000BD78
:1040A000E044025800000258000402580008025878
:1040B000001802582DE9F041044600681F46D0F868
:1040C0000032DB0718D1D0F8003223F0787343EACE
:1040D000415121F4F81141EA024141F00D01C0F8CB
:1040E000001200F04DFA4FF47A76054607E000F032
:1040F00047FA401BB04202D90120BDE8F081206898
:10410000D0F80002C007F2D12068D0F8040280B2D3
:1041100038600020F1E710B519B190F85220102A4C
:1041200001D0012010BDFFF799FA002010BD00005A
:1041300070B505460068D0F8000220F4706400F005
:10414000D3FC1149114A0144914202D244F4007453
:1041500016E00F490F4A0144914202D244F44074E0
:104160000EE00D490D4A0144914209D30C4908441F
:104170000C49884202D244F4807401E044F4806423
:104180002868C0F8004270BD00D3CEFEC0E1E40054
:1041900040F1E9FD40787D0100796CFC005A620233
:1041A000001F0AFA80F0FA0210B590F85130002191
:1041B000C26A102B01D0012010BD232380F851309A
:1041C0000023D468491C042944F08044D46000D3FF
:1041D000091F5B1C00EB8102042BD26AF1D3012181
:1041E000C16401680A6842F002020A6001680A6854
:1041F00042F001020A600168D1F8002D42F001028C
:10420000C1F8002D016801F58051D1F8042142F078
:104210000102C1F80421016801F58051D1F808219B
:1042200042F00102C1F80821016801F58051D1F87E
:10423000602142F48172C1F86021102180F8511090
:10424000222180F85210006800F58050D0F8341117
:104250004DF241021143C0F83411002010BD2DE988
:10426000F04100F118061546044641B194F851009A
:10427000102808D094F85100212804D049E0606D3E
:1042800040F001000AE0212084F85100002220467D
:10429000FFF730F820B1606D40F00200606538E053
:1042A000A06A56F82060401C0428A06201D3001FB9
:1042B000A06204EB80008169206800F58050C0F89E
:1042C000201100F05DF907464FF0100824E0206847
:1042D00000F58050D0F86001C0040BD5606D40F04F
:1042E00008006065206800F58050D0F86001A06586
:1042F000E0200CE0681C0FD025B100F041F9C01B94
:10430000A84209D9606D40F004006065404684F819
:1043100051000120BDE8F081F0680028D7DB84F867
:1043200051800020F6E7000070B505460068D0F81F
:104330000042E4071FD1D0F8000220F0787040EA74
:104340004150114920F4F81040EA024020F00C00DE
:10435000001D9AB2C1F8042240F00100C1F8000229
:1043600000F00EF94FF47A76044606E000F008F902
:10437000001BB04201D9012070BD2868D0F80002AE
:10438000C007F3D170BD0000008002400248016800
:1043900041F0010101607047200400582DE9F84FF9
:1043A00000224FF0010A4FF0B0494FF0030B4FF0DD
:1043B0000F080B680AFA02F63340B34271D14C6819
:1043C000022C01D0122C11D1D40800EB84073D6AD5
:1043D0005407E40E08FA04FC25EA0C05D1F810C0D5
:1043E0000CFA04FC4CEA050CC7F820C0076854001E
:1043F00091F804C00BFA04F50CF0030CAF430CFA6F
:1044000004FC4CEA070CC0F800C04F68012F05D02F
:10441000022F03D0112F01D0122F11D18768D1F8AC
:104420000CC0AF430CFA04FC4CEA070CC0F808C0FF
:104430004768B7430E79C6F3001696403E43466080
:10444000C668AE438D68A5403543C5604C68E4003E
:104450006CD5394C256845F002052560246822F0AA
:10446000030505F1B04504F002040094D5F8087482
:104470009407260F08FA06F4A743304CA04201D156
:1044800000242EE02E4CA04201D1012429E02D4C25
:10449000A04201D1022424E02B4CA04202D10324EB
:1044A0001FE043E0294CA04201D1042419E0284C2C
:1044B000A04201D1052414E0264CA04201D10624DB
:1044C0000FE0254CA04201D107240AE0234CA04272
:1044D00001D1082405E0224CA04201D1092400E0CA
:1044E0000A24B4403C43C5F80844D9F880404D46FE
:1044F0004E689C43F60300D51C43C5F88040D5F8B0
:1045000084404E689C43B60300D51C43C5F88440E4
:104510002C684E689C43F60200D51C432C606C68E6
:104520004E689C43B60200D51C436C60521C102A96
:10453000FFF43FAFBDE8F88FF44402580000025882
:104540000004025800080258000C025800100258DB
:104550000014025800180258001C0258002002588B
:10456000002402580069084000D0012070474269C9
:104570004A40426170470AB10183704741837047E6
:1045800001480068704700001800002402480168D4
:10459000491C01607047000018000024032010B57A
:1045A00000F074F80F2000F005F800F041F800204A
:1045B00010BD000010B5044607484FF47A7100683A
:1045C000B0FBF1F000F096FE00222146501E00F0F4
:1045D0003DF8002010BD000000000024134A41787F
:1045E0001160111D03780A1DE3B143680B60017B64
:1045F000C37A090741EA0361837A41EAC341437BF5
:1046000041EA8341837B41EA4341C37B41EA034161
:10461000437A41EA0321037A007841EA43010143E6
:1046200011607047002008601060704798ED00E04E
:104630007047002809DB012100F01F02914040096A
:10464000800000F1E020C0F8001170470E4BF0B47C
:104650001B68C3F30223C3F10704042C00D904240C
:104660001D1D072D01D2002300E0DB1E012606FAE6
:1046700004F56D1E0D409D409E40761E164045EA95
:104680000601F0BC05F06EBF0CED00E0064A00F03C
:10469000070110684FF6FF03184040EA0120034964
:1046A00008431060704700000CED00E00000FA05C0
:1046B00010B500F05FFA084909684FF4807292FA69
:1046C000A2F201F47061B2FA82F2D140034A515C65
:1046D000C8400349086010BD18440258964D0108AF
:1046E0000000002410B500F0FFF907490968102206
:1046F00092FAA2F201F07001B2FA82F2D140034ABA
:10470000515CC84010BD000020440258964D01087D
:10471000374930B50A68096812F00302354BC1F316
:1047200005311B68344C03F010032468DFED330AB5
:10473000B7EE001AC4F3CC0414FB03F300EE103AF6
:104740002F4BB8EE400A07D02E4C012A01D0022A86
:104750004CD0B4FBF1F10BE0254C283C22689506C7
:10476000294A03D52468C4F3C104E240B2FBF1F145
:1047700080EE202A01EE901A1968F8EE611AC1F352
:10478000080100EE101A1968B8EE400A32EE000A6D
:1047900030EE010A21EE800AC1F34621491C00EEE9
:1047A000901AF8EE600A80EE201AFCEEC10AC0ED05
:1047B000000A1968C1F30641491C00EE901AF8EE90
:1047C000600A80EE201AFCEEC10AC0ED010A1968E9
:1047D000C1F30661491C00EE901AF8EE600A80EE03
:1047E000201ABCEEC10A80ED020A30BD074ABDE7BF
:1047F000284402582C4402583C44025800F8FF4513
:104800003844025800093D000090D00340787D01F3
:10481000374930B50A68096812F00302354BC1F315
:1048200005511B68344C03F480732468DFED330AB0
:10483000B7EE001AC4F3CC0414FB03F300EE103AF5
:104840002F4BB8EE400A07D02E4C012A01D0022A85
:104850004CD0B4FBF1F10BE0254C283C22689506C6
:10486000294A03D52468C4F3C104E240B2FBF1F144
:1048700080EE202A01EE901A1968F8EE611AC1F351
:10488000080100EE101A1968B8EE400A32EE000A6C
:1048900030EE010A21EE800AC1F34621491C00EEE8
:1048A000901AF8EE600A80EE201AFCEEC10AC0ED04
:1048B000000A1968C1F30641491C00EE901AF8EE8F
:1048C000600A80EE201AFCEEC10AC0ED010A1968E8
:1048D000C1F30661491C00EE901AF8EE600A80EE02
:1048E000201ABCEEC10A80ED020A30BD074ABDE7BE
:1048F000284402582C4402584444025800F8FF450A
:104900004044025800093D000090D00340787D01EA
:104910002DE9F047DFF8BC9104460E46D9F80000B7
:1049200000F00700B0420CD2D9F8001021F00701C6
:104930003143C9F80010D9F8000000F00700B04278
:104940007ED12078DFF89081800707D5D8F8001055
:10495000E26821F00F011143C8F800102078C00769
:1049600062D0D8F80010A26821F470611143C8F831
:10497000001059496068183902281CD003281DD03E
:10498000096801281DD04907002960DA524F083F05
:10499000396821F0070101433960FFF7F1FD054651
:1049A000606841F28831022813D003281ED0012804
:1049B0008A4627D034E009688903E5E70968890158
:1049C000E2E7C905E0E7FFF7DBFD411B514501D9EF
:1049D00023E08A463868C0F3C2000228F3D123E0FE
:1049E000FFF7CEFD411B514501D916E08A463868D4
:1049F000C0F3C2000328F3D116E0FFF7C1FD411B4D
:104A000051450AD83868C0F3C2000128F5D10BE03F
:104A1000FFF7B6FD411B514502D90320BDE8F087E1
:104A2000386810F0380FF3D1D9F80010484601F07B
:104A30000701B1420DD9016821F00701314300E0BF
:104A400005E00160006800F00700B04201D00120DD
:104A5000E4E72078400707D5D8F80010226921F054
:104A600070011143C8F80010207801071B4805D5D4
:104A70000168626921F07001114301602178C90663
:104A800005D50168A26921F4E06111430160207835
:104A9000800607D51149091D0868E26920F07000F9
:104AA0001043086000F066F8D8F800104FF48072E8
:104AB00092FAA2F201F47061B2FA82F2D140084A8D
:104AC000515CC840074908600F20FFF773FD0020C4
:104AD000A4E7000000200052184402581C44025869
:104AE000964D01080000002410B5FFF7E1FD0849CC
:104AF0000968012292FAA2F201F00F01B2FA82F2E1
:104B0000D140044A515CC8400349086010BD000010
:104B100018440258964D01080400002410B5FFF710
:104B2000E3FF07490968102292FAA2F201F070012E
:104B3000B2FA82F2D140034A515CC84010BD000075
:104B40001C440258964D010810B5FFF7CDFF0749E8
:104B500009684FF4807292FAA2F201F4E061B2FAAD
:104B600082F2D140024A515CC84010BD1C44025838
:104B7000964D01083648F0B50068374D10F0380101
:104B8000344809D00411082904D0344E10290BD020
:104B900018290BD02046F0BD29688906FBD5296865
:104BA000C1F3C101C840F0BD3046F0BD28491831FD
:104BB0000A68096812F00302294BC1F305111B684A
:104BC000284F03F001033F68DFED270AB7EE001A14
:104BD000C7F3CC0717FB03F300EE103A234BB8EEF4
:104BE000400A06D0012A01D0022A2DD0B4FBF1F0F0
:104BF00008E02A68920603D52A68C2F3C102D040B1
:104C0000B0FBF1F080EE202A01EE900A1868F8EE71
:104C1000611AC0F3080000EE100A1868B8EE400AE6
:104C200032EE000A30EE010A21EE800AC0F346207F
:104C3000401C00EE900AF8EE600A80EE201ABCEEEE
:104C4000C10A10EE100AF0BDB6FBF1F0DAE7000081
:104C5000104402580090D0030044025840787D016F
:104C60002C4402583444025800F8FF45304402589E
:104C70002DE9F05F04460078DFF8FC8341F28839C3
:104C8000DFF8F8A3FE4DC0074ED0D8F8001040461C
:104C9000C1F3C20102291AD00068C0F3C200032880
:104CA00005D1DAF8000000F0030002280FD0606898
:104CB000B0F5803F12D010B1B0F5A02F19D0286800
:104CC00020F480302860286820F4802009E02868DB
:104CD000800329D56068002874D025E0286840F456
:104CE00080302860606890B1FFF74AFC06464F4666
:104CF00009E0286840F480202860EFE7FFF740FCD7
:104D0000801BB8427DD828688003F7D50CE0FFF7F8
:104D100037FC06464F4604E0FFF732FC801BB842E2
:104D2000F0D828688003F7D42078D64F80075AD56A
:104D3000D8F8001040464FF47C3B11F0380F13D0E8
:104D40000068C0F3C200032803D1DAF8000080072E
:104D50000AD0E068A8B3296821F01901014329604D
:104D6000FFF70EFC06461DE02868400702D5E06804
:104D70000028B1D02868E16820F0190008432860B5
:104D8000FFF7FEFB064604E0FFF7FAFB801B022854
:104D9000B8D828684007F7D507E0FFF7F1FB801B7C
:104DA0000228AFD828684007F7D538689BFAABF2DD
:104DB00020F47C312069B2FA82F2904001433960DC
:104DC00011E000E0AEE0286820F001002860FFF765
:104DD000D7FB064604E0FFF7D3FB801B022891D8DF
:104DE00028684007F7D42078C00655D5D8F80010B9
:104DF00040464FF0F84BC1F3C201012917D00068BB
:104E000000E0ECE0C0F3C200032805D1DAF80000AE
:104E100000F0030001280AD0E069002828682CD09F
:104E200040F080002860FFF7ABFB064616E02868DC
:104E3000C00502D5E069802874D138689BFAABF2CE
:104E400020F0F841206AB2FA82F2904001433960C2
:104E500022E0FFF795FB801B022899D82868C0053F
:104E6000F7D538689BFAABF2216AB2FA82F220F0E9
:104E7000F8409140084338600EE020F08000286040
:104E8000FFF77EFB064604E0FFF77AFB801B022853
:104E900087D82868C005F7D42078000724D5774F35
:104EA00060694C37002838680FD040F00100386046
:104EB000FFF766FB064604E0FFF762FB801B022853
:104EC0008DD838688007F7D50EE020F001003860F3
:104ED000FFF756FB064604E0FFF752FB801B022853
:104EE0007DD838688007F7D42078800623D5A0695C
:104EF000002828680FD040F480502860FFF740FB5E
:104F0000064604E0FFF73CFB801B022867D82868B0
:104F10008004F7D50FE020F480502860FFF730FBC5
:104F2000064605E0D5E0FFF72BFB801B022856D88C
:104F300028688004F7D42078400745D5524F386858
:104F400040F480703860FFF71BFB064604E0FFF773
:104F500017FB801B642842D83868C005F7D5474F37
:104F6000A068483701280AD008B1052812D038684F
:104F700020F001003860386820F0040002E0386852
:104F800040F001003860A068012808D0FFF7F8FA67
:104F9000064616E0386840F004003860EFE7FFF797
:104FA000EFFA064604E0FFF7EBFA811B494516D8F5
:104FB00038688007F7D507E0FFF7E2FA811B49451B
:104FC0000DD838688007F7D4606AE0B3D8F80010CD
:104FD000C1F3C20103297CD00228286800E079E0EF
:104FE00020F08070286003D0FFF7CAFA044687E0FB
:104FF000FFF7C6FA064604E0FFF7C2FA801B022854
:105000007BD828688001F7D4DAF8001040F2F33238
:105010009143E26A41EA0211A26A1143CAF8001000
:1050200094F834004FF4FE02218E4002491EA0F590
:10503000007080B2C1F308010843218F491E02EAC3
:105040000141084300E05EE094F83C101202491E62
:1050500002EA016108430949083108600B1D19681B
:105060004FF6F872A06C914392FAA2F2B2FA82F271
:1050700090400143196009E0104402582844025846
:105080000044025804440258004802582048001DB9
:105090000168226C21F00C01114301600168626C0F
:1050A00021F0020111430160016841F48031016087
:1050B000016841F400310160016841F48021016020
:1050C000016841F001010160286840F080702860AB
:1050D00001E01AE011E0FFF753FA044604E0FFF79D
:1050E0004FFA001B022808D828688001F7D50AE08B
:1050F000FFF746FA001B022802D90320BDE8F09F03
:1051000028688001F4D40020F8E70120F6E70000C9
:105110002844025870B504000D4603D094F82C00C2
:1051200010B107E0012070BD002084F82D0020465A
:1051300000F018F8022084F82C002068211DFEF7EA
:105140005FFBD4E900022946FEF79AFB0448016898
:1051500041F000410160012084F82C00002070BD66
:10516000004000523A4800B587B0016841F00201A2
:105170000160006800F002000590354820380168A1
:1051800041F480510160006800F48050059030487F
:105190001438016841F004010160016801F0040164
:1051A0000591016841F008010160016801F0080102
:1051B0000591016841F010010160016801F01001E2
:1051C0000591016841F020010160016801F02001B2
:1051D0000591016841F0400101600068002100F084
:1051E000400005904FF0806000F066F800214FF01D
:1051F000006000F061F80D20009002200190012075
:105200000290032003900C20049012486946FFF797
:10521000C5F84CF2037000900F486946FFF7BEF8DE
:105220004FF6837000900D486946FFF7B7F84FF6C8
:105230003F0000900A486946FFF7B0F848F237107F
:10524000009008486946FFF7A9F807B000BD0000C4
:10525000F444025800080258000C0258001002588A
:10526000001402580018025810B5044690F82C009B
:10527000022809D0022084F82C002068FEF7E8FA02
:10528000012084F82C00002010BD70B5044690F871
:105290002C000D4602280CD0022084F82C00206837
:1052A000FEF7DCFA2868022804D0012084F82C00DC
:1052B000002070BD0520F9E7024A136883430B43C1
:1052C000136070470404005803490A6822F460021E
:1052D00002430A6070470000040400584FF0E021C8
:1052E0000428086903D020F004000861704740F0EA
:1052F0000400FAE7401EB0F1807F10B501D3012011
:1053000010BD4FF0E02460610F21601705F02AF90D
:105310000020A06107202061002010BD10B504000E
:1053200003D094F83D0010B107E0012010BD00202B
:1053300084F83C00204600F00CF8022084F83D0080
:105340002068211D04F0EEFB012084F83D000020C0
:1053500010BD70470168CA6842F00102CA60006867
:10536000018841F0010101800020704770477047BB
:1053700090F8791090F87A000843704770B5026889
:105380000446D0691368916810F00F0F64D0594D2E
:1053900003F490760D40354376D0C50707D0DD0580
:1053A00005D501251562E26F42F00102E26782072E
:1053B00008D5CA0706D0256802222A62E26F42F0A9
:1053C0000402E267420708D5CA0706D0256804220E
:1053D0002A62E26F42F00202E26702070ED503F092
:1053E000200201F080552A4352EAC17206D0256896
:1053F00008222A62E26F42F00802E267E26F002AA6
:105400003AD0800608D503F0200001F0805108430F
:1054100002D0204604F0BAFCE06F000703D42068F5
:10542000806840062AD5204604F0A2FC20688168E6
:1054300049061ED5816821F040018160606FC0B1CE
:105440002D490165606FFEF763FA002814D0606F84
:10545000016DBDE870400847850615D503F02005AD
:1054600001F0805635430FD02046BDE8704004F06F
:105470008DBC2046FFF77BFF70BD05E02046FFF79F
:1054800076FF0020E067F7E7C6024FF020050CD555
:105490004E020AD5E803106284F8795084F87A50F5
:1054A0002046BDE87040FFF761BF06060AD503F04D
:1054B000800601F400010E4304D02046BDE8704090
:1054C00004F0F4BE41060BD5590609D511682046F3
:1054D00021F04001116084F8795000F003F9CBE726
:1054E0000002C9D55800C7D5106820F08040106070
:1054F000C2E70000010000105D9D000810B5040027
:1055000003D094F8790010B107E0012010BD00200D
:1055100084F87800204600F027F8242084F87900E9
:105520002068016821F001010160204604F06AFC56
:105530000128EBD0606B10B1204604F07DFB2068A1
:10554000416821F4904141602068816821F02A017E
:1055500081602068016841F0010101602046BDE8DA
:10556000104004F0CDBB000010B5006886B01A49A9
:1055700088422ED11948016841F008010160006895
:1055800000F00800059015480830016841F400312A
:10559000016000680121124C00F4003005902020C9
:1055A00000900220CDE90101039007206946049094
:1055B0002046FEF7F3FE4021204600916946FEF7A3
:1055C000EDFE2620FFF735F8032226201146FFF7CF
:1055D0003DF806B010BD000000440040E044025811
:1055E000000C025890F87A30202B4CD1B9B1B2B1EE
:1055F00090F87830012B46D0012380F8783041664E
:10560000A0F86820A0F86A20FF228168B1F5805FC9
:1056100007D07F2351B1B1F1805F0CD010E00120A1
:105620007047016921B940F2FF1107E0016909BB28
:10563000A0F86C2004E00169E1B13F21A0F86C10F2
:105640000021C167222280F87A2080F87810016852
:105650008A6842F001028A6001680A6892000CD5EB
:105660000A6842F480720A600068816841F08051E3
:10567000816006E0A0F86C30E2E7086840F49070C2
:1056800008600020704702207047000030B50068B5
:10569000114988420CD1114A5088010408D411469E
:1056A0004FF000034404097806D50A2901D053803D
:1056B00030BD40F400400DE00D2909D0084DC0F385
:1056C0000D04401C80B2C72829555080EFD830BD4A
:1056D00040F48040508030BD004400401000002461
:1056E000C41500247047FEE710B5124C00221021AB
:1056F0002046FEF740FF206820F4406020602068CC
:1057000040F480602060002220462021FEF733FF15
:10571000022005F007FB012220461021FEF72BFF97
:10572000022005F0FFFA00222046BDE810401021BB
:10573000FEF721BF001C0258114810B586B0016861
:1057400041F080010160006869460E4C00F0800065
:1057500005903020009001200190029003200390DA
:105760002046FEF71BFE012220462021FEF703FF04
:10577000012220461021FEF7FEFE06B010BD0000FB
:10578000E0440258001C025810B5124C00221021AF
:105790002046FEF7F0FE206820F44060206020687C
:1057A00040F480602060012220462021FEF7E3FEC5
:1057B000022005F0B7FA012220461021FEF7DBFE99
:1057C000022005F0AFFA00222046BDE8104010216B
:1057D000FEF7D1BE001C02582DE9F041174E0746D6
:1057E0000024306820F44060306030683060254626
:1057F000002230461021FEF7BEFE022005F092FA8C
:10580000012230461021FEF7B6FE60062021040E6C
:105810003046FEF7A7FE08B1641CE4B2012005F093
:1058200081FA6D1CEDB2082DE2D327B1FFF75CFFC2
:105830002046BDE8F081FFF7A7FFF9E7001C0258FA
:1058400070B5194E05463046316821F4406131602B
:10585000316841F48061316000221021FEF78BFE37
:105860000024280601D5012200E000223046202134
:10587000FEF781FE6806050E022005F053FA0122AC
:1058800030461021FEF777FE022005F04BFA002289
:1058900030461021FEF76FFE022005F043FA641C2B
:1058A000E4B2082CDDD370BD001C025810B5124CB8
:1058B000206820F440602060206840F48060206010
:1058C000012220462021FEF756FE0122204610210B
:1058D000FEF751FE042005F025FA00222046202183
:1058E000FEF749FE042005F01DFA00222046BDE81F
:1058F00010401021FEF73FBE001C025810B5124C9C
:10590000206820F440602060206840F480602060BF
:10591000002220461021FEF72EFE002220462021E4
:10592000FEF729FE042005F0FDF901222046102192
:10593000FEF721FE012220462021FEF71CFEBDE8D5
:105940001040042005F0EEB9001C025870B5174D48
:105950000024286820F4406028602868286001221C
:1059600020212846FEF707FE012005F0DBF9012281
:1059700028461021FEF7FFFD012005F0D3F907E0CE
:10598000641CE4B2FA2C03D9FFF7B8FF012070BD04
:1059900020212846FEF7E6FD0028F1D10022284606
:1059A0001021FEF7E8FD002070BD0000001C025829
:1059B0001B4870B586B0016841F0010101600168C3
:1059C00001F001010591016841F0040101600168E5
:1059D00001F004010591016841F080010160006857
:1059E00003240025694600F080000590022001266E
:1059F000CDE902040B48CDE90065FEF7CFFC70034A
:105A000003948DE8610008486946FEF7C7FC0C2046
:105A1000009006486946FEF7C1FC06B070BD000064
:105A2000E04402580000025800080258001C0258C6
:105A300008B5002069460090012000F007F9012018
:105A4000694600F003F90098400701D4012008BD21
:105A50000020694600F0FAF80098C10408D44FF419
:105A60000451814317D0810417D4C00517D410E026
:105A70001F20694600F0EAF80098C10401D406200E
:105A800008BDC0F38200062805D0022805D00528ED
:105A900005D0052008BD022008BD032008BD042054
:105AA00008BD0000FEB5002425460294FAF78DFCDF
:105AB0000121072003F03CFE642005F00BF90021D2
:105AC000072003F035FE642005F004F9FAF77FFCA7
:105AD00000F088FE3A4801788DF8001041788DF882
